{
  "_format": "hh-sol-artifact-1",
  "contractName": "DAO",
  "sourceName": "contracts/DAO.sol",
  "abi": [
    {
      "inputs": [
        {
          "internalType": "uint256",
          "name": "contributionTime",
          "type": "uint256"
        },
        {
          "internalType": "uint256",
          "name": "_voteTime",
          "type": "uint256"
        },
        {
          "internalType": "uint256",
          "name": "_quorum",
          "type": "uint256"
        }
      ],
      "stateMutability": "nonpayable",
      "type": "constructor"
    },
    {
      "stateMutability": "payable",
      "type": "fallback"
    },
    {
      "inputs": [],
      "name": "admin",
      "outputs": [
        {
          "internalType": "address",
          "name": "",
          "type": "address"
        }
      ],
      "stateMutability": "view",
      "type": "function"
    },
    {
      "inputs": [],
      "name": "availableFunds",
      "outputs": [
        {
          "internalType": "uint256",
          "name": "",
          "type": "uint256"
        }
      ],
      "stateMutability": "view",
      "type": "function"
    },
    {
      "inputs": [],
      "name": "contribute",
      "outputs": [],
      "stateMutability": "payable",
      "type": "function"
    },
    {
      "inputs": [],
      "name": "contributionEnd",
      "outputs": [
        {
          "internalType": "uint256",
          "name": "",
          "type": "uint256"
        }
      ],
      "stateMutability": "view",
      "type": "function"
    },
    {
      "inputs": [
        {
          "internalType": "string",
          "name": "name",
          "type": "string"
        },
        {
          "internalType": "uint256",
          "name": "amount",
          "type": "uint256"
        },
        {
          "internalType": "address payable",
          "name": "recipient",
          "type": "address"
        }
      ],
      "name": "createProposal",
      "outputs": [],
      "stateMutability": "nonpayable",
      "type": "function"
    },
    {
      "inputs": [
        {
          "internalType": "uint256",
          "name": "proposalId",
          "type": "uint256"
        }
      ],
      "name": "executeProposal",
      "outputs": [],
      "stateMutability": "nonpayable",
      "type": "function"
    },
    {
      "inputs": [],
      "name": "getProposals",
      "outputs": [
        {
          "components": [
            {
              "internalType": "uint256",
              "name": "id",
              "type": "uint256"
            },
            {
              "internalType": "string",
              "name": "name",
              "type": "string"
            },
            {
              "internalType": "uint256",
              "name": "amount",
              "type": "uint256"
            },
            {
              "internalType": "address payable",
              "name": "recipient",
              "type": "address"
            },
            {
              "internalType": "uint256",
              "name": "votes",
              "type": "uint256"
            },
            {
              "internalType": "uint256",
              "name": "end",
              "type": "uint256"
            },
            {
              "internalType": "bool",
              "name": "executed",
              "type": "bool"
            }
          ],
          "internalType": "struct DAO.Proposal[]",
          "name": "",
          "type": "tuple[]"
        }
      ],
      "stateMutability": "view",
      "type": "function"
    },
    {
      "inputs": [
        {
          "internalType": "address",
          "name": "",
          "type": "address"
        }
      ],
      "name": "investors",
      "outputs": [
        {
          "internalType": "bool",
          "name": "",
          "type": "bool"
        }
      ],
      "stateMutability": "view",
      "type": "function"
    },
    {
      "inputs": [],
      "name": "nextProposalId",
      "outputs": [
        {
          "internalType": "uint256",
          "name": "",
          "type": "uint256"
        }
      ],
      "stateMutability": "view",
      "type": "function"
    },
    {
      "inputs": [
        {
          "internalType": "uint256",
          "name": "",
          "type": "uint256"
        }
      ],
      "name": "proposals",
      "outputs": [
        {
          "internalType": "uint256",
          "name": "id",
          "type": "uint256"
        },
        {
          "internalType": "string",
          "name": "name",
          "type": "string"
        },
        {
          "internalType": "uint256",
          "name": "amount",
          "type": "uint256"
        },
        {
          "internalType": "address payable",
          "name": "recipient",
          "type": "address"
        },
        {
          "internalType": "uint256",
          "name": "votes",
          "type": "uint256"
        },
        {
          "internalType": "uint256",
          "name": "end",
          "type": "uint256"
        },
        {
          "internalType": "bool",
          "name": "executed",
          "type": "bool"
        }
      ],
      "stateMutability": "view",
      "type": "function"
    },
    {
      "inputs": [],
      "name": "quorum",
      "outputs": [
        {
          "internalType": "uint256",
          "name": "",
          "type": "uint256"
        }
      ],
      "stateMutability": "view",
      "type": "function"
    },
    {
      "inputs": [
        {
          "internalType": "uint256",
          "name": "amount",
          "type": "uint256"
        }
      ],
      "name": "redeem",
      "outputs": [],
      "stateMutability": "nonpayable",
      "type": "function"
    },
    {
      "inputs": [
        {
          "internalType": "address",
          "name": "",
          "type": "address"
        }
      ],
      "name": "shares",
      "outputs": [
        {
          "internalType": "uint256",
          "name": "",
          "type": "uint256"
        }
      ],
      "stateMutability": "view",
      "type": "function"
    },
    {
      "inputs": [],
      "name": "totalShares",
      "outputs": [
        {
          "internalType": "uint256",
          "name": "",
          "type": "uint256"
        }
      ],
      "stateMutability": "view",
      "type": "function"
    },
    {
      "inputs": [
        {
          "internalType": "uint256",
          "name": "amount",
          "type": "uint256"
        },
        {
          "internalType": "address",
          "name": "to",
          "type": "address"
        }
      ],
      "name": "transfer",
      "outputs": [],
      "stateMutability": "nonpayable",
      "type": "function"
    },
    {
      "inputs": [
        {
          "internalType": "uint256",
          "name": "proposalId",
          "type": "uint256"
        }
      ],
      "name": "vote",
      "outputs": [],
      "stateMutability": "nonpayable",
      "type": "function"
    },
    {
      "inputs": [],
      "name": "voteTime",
      "outputs": [
        {
          "internalType": "uint256",
          "name": "",
          "type": "uint256"
        }
      ],
      "stateMutability": "view",
      "type": "function"
    },
    {
      "inputs": [
        {
          "internalType": "uint256",
          "name": "amount",
          "type": "uint256"
        },
        {
          "internalType": "address payable",
          "name": "to",
          "type": "address"
        }
      ],
      "name": "withdraw",
      "outputs": [],
      "stateMutability": "nonpayable",
      "type": "function"
    }
  ],
  "bytecode": "0x60806040523480156200001157600080fd5b506040516200261838038062002618833981810160405281019062000037919062000136565b600081118015620000485750606481105b6200008a576040517f08c379a00000000000000000000000000000000000000000000000000000000081526004016200008190620001f3565b60405180910390fd5b824262000098919062000244565b600681905550816008819055508060098190555033600a60006101000a81548173ffffffffffffffffffffffffffffffffffffffff021916908373ffffffffffffffffffffffffffffffffffffffff160217905550505050620002a1565b600080fd5b6000819050919050565b6200011081620000fb565b81146200011c57600080fd5b50565b600081519050620001308162000105565b92915050565b600080600060608486031215620001525762000151620000f6565b5b600062000162868287016200011f565b935050602062000175868287016200011f565b925050604062000188868287016200011f565b9150509250925092565b600082825260208201905092915050565b7f71756f72756d206d757374206265206265747765656e203020616e6420313030600082015250565b6000620001db60208362000192565b9150620001e882620001a3565b602082019050919050565b600060208201905081810360008301526200020e81620001cc565b9050919050565b7f4e487b7100000000000000000000000000000000000000000000000000000000600052601160045260246000fd5b60006200025182620000fb565b91506200025e83620000fb565b9250827fffffffffffffffffffffffffffffffffffffffffffffffffffffffffffffffff0382111562000296576200029562000215565b5b828201905092915050565b61236780620002b16000396000f3fe60806040526004361061010c5760003560e01c80636ac1e01f11610095578063ce7c2ac211610064578063ce7c2ac214610376578063d151b516146103b3578063d7bb99ba146103de578063db006a75146103e8578063f851a440146104115761010d565b80636ac1e01f146102bc5780636f7bc9be146102e5578063b7760c8f14610322578063bcf93dd61461034b5761010d565b80631703a018116100dc5780631703a018146101e55780632ab09d14146102105780633a98ef391461023b57806346fcff4c1461026657806362564c48146102915761010d565b8062f714ce146101275780630121b93f14610150578063013cf08b146101795780630d61b519146101bc5761010d565b5b346005600082825461011f91906114bb565b925050819055005b34801561013357600080fd5b5061014e600480360381019061014991906115af565b61043c565b005b34801561015c57600080fd5b50610177600480360381019061017291906115ef565b61044a565b005b34801561018557600080fd5b506101a0600480360381019061019b91906115ef565b6106a4565b6040516101b397969594939291906116ee565b60405180910390f35b3480156101c857600080fd5b506101e360048036038101906101de91906115ef565b61079b565b005b3480156101f157600080fd5b506101fa610978565b6040516102079190611764565b60405180910390f35b34801561021c57600080fd5b5061022561097e565b6040516102329190611764565b60405180910390f35b34801561024757600080fd5b50610250610984565b60405161025d9190611764565b60405180910390f35b34801561027257600080fd5b5061027b61098a565b6040516102889190611764565b60405180910390f35b34801561029d57600080fd5b506102a6610990565b6040516102b39190611954565b60405180910390f35b3480156102c857600080fd5b506102e360048036038101906102de9190611aab565b610b7b565b005b3480156102f157600080fd5b5061030c60048036038101906103079190611b58565b610da8565b6040516103199190611b85565b60405180910390f35b34801561032e57600080fd5b5061034960048036038101906103449190611ba0565b610dc8565b005b34801561035757600080fd5b50610360610f51565b60405161036d9190611764565b60405180910390f35b34801561038257600080fd5b5061039d60048036038101906103989190611b58565b610f57565b6040516103aa9190611764565b60405180910390f35b3480156103bf57600080fd5b506103c8610f6f565b6040516103d59190611764565b60405180910390f35b6103e6610f75565b005b3480156103f457600080fd5b5061040f600480360381019061040a91906115ef565b61109a565b005b34801561041d57600080fd5b5061042661122b565b6040516104339190611bef565b60405180910390f35b6104468282611251565b5050565b600115156000803373ffffffffffffffffffffffffffffffffffffffff1673ffffffffffffffffffffffffffffffffffffffff16815260200190815260200160002060009054906101000a900460ff161515146104dc576040517f08c379a00000000000000000000000000000000000000000000000000000000081526004016104d390611c7c565b60405180910390fd5b600060026000838152602001908152602001600020905060001515600360003373ffffffffffffffffffffffffffffffffffffffff1673ffffffffffffffffffffffffffffffffffffffff168152602001908152602001600020600084815260200190815260200160002060009054906101000a900460ff16151514610597576040517f08c379a000000000000000000000000000000000000000000000000000000000815260040161058e90611ce8565b60405180910390fd5b806005015442106105dd576040517f08c379a00000000000000000000000000000000000000000000000000000000081526004016105d490611d54565b60405180910390fd5b600160003373ffffffffffffffffffffffffffffffffffffffff1673ffffffffffffffffffffffffffffffffffffffff1681526020019081526020016000205481600401600082825461063091906114bb565b925050819055506001600360003373ffffffffffffffffffffffffffffffffffffffff1673ffffffffffffffffffffffffffffffffffffffff168152602001908152602001600020600084815260200190815260200160002060006101000a81548160ff0219169083151502179055505050565b60026020528060005260406000206000915090508060000154908060010180546106cd90611da3565b80601f01602080910402602001604051908101604052809291908181526020018280546106f990611da3565b80156107465780601f1061071b57610100808354040283529160200191610746565b820191906000526020600020905b81548152906001019060200180831161072957829003601f168201915b5050505050908060020154908060030160009054906101000a900473ffffffffffffffffffffffffffffffffffffffff16908060040154908060050154908060060160009054906101000a900460ff16905087565b600a60009054906101000a900473ffffffffffffffffffffffffffffffffffffffff1673ffffffffffffffffffffffffffffffffffffffff163373ffffffffffffffffffffffffffffffffffffffff161461082b576040517f08c379a000000000000000000000000000000000000000000000000000000000815260040161082290611e46565b60405180910390fd5b600060026000838152602001908152602001600020905080600501544210610888576040517f08c379a000000000000000000000000000000000000000000000000000000000815260040161087f90611eb2565b60405180910390fd5b600015158160060160009054906101000a900460ff161515146108e0576040517f08c379a00000000000000000000000000000000000000000000000000000000081526004016108d790611f1e565b60405180910390fd5b600954606460045483600401546108f79190611f6d565b6109019190611f9e565b1015610942576040517f08c379a00000000000000000000000000000000000000000000000000000000081526004016109399061206a565b60405180910390fd5b61097481600201548260030160009054906101000a900473ffffffffffffffffffffffffffffffffffffffff16611251565b5050565b60095481565b60075481565b60045481565b60055481565b6060600060075467ffffffffffffffff8111156109b0576109af611980565b5b6040519080825280602002602001820160405280156109e957816020015b6109d661138a565b8152602001906001900390816109ce5790505b50905060005b600754811015610b7357600260008281526020019081526020016000206040518060e001604052908160008201548152602001600182018054610a3190611da3565b80601f0160208091040260200160405190810160405280929190818152602001828054610a5d90611da3565b8015610aaa5780601f10610a7f57610100808354040283529160200191610aaa565b820191906000526020600020905b815481529060010190602001808311610a8d57829003601f168201915b50505050508152602001600282015481526020016003820160009054906101000a900473ffffffffffffffffffffffffffffffffffffffff1673ffffffffffffffffffffffffffffffffffffffff1673ffffffffffffffffffffffffffffffffffffffff16815260200160048201548152602001600582015481526020016006820160009054906101000a900460ff161515151581525050828281518110610b5557610b5461208a565b5b60200260200101819052508080610b6b906120b9565b9150506109ef565b508091505090565b600115156000803373ffffffffffffffffffffffffffffffffffffffff1673ffffffffffffffffffffffffffffffffffffffff16815260200190815260200160002060009054906101000a900460ff16151514610c0d576040517f08c379a0000000000000000000000000000000000000000000000000000000008152600401610c0490611c7c565b60405180910390fd5b816005541015610c52576040517f08c379a0000000000000000000000000000000000000000000000000000000008152600401610c499061214d565b60405180910390fd5b6040518060e0016040528060075481526020018481526020018381526020018273ffffffffffffffffffffffffffffffffffffffff1681526020016000815260200160085442610ca291906114bb565b815260200160001515815250600260006007548152602001908152602001600020600082015181600001556020820151816001019080519060200190610ce99291906113df565b506040820151816002015560608201518160030160006101000a81548173ffffffffffffffffffffffffffffffffffffffff021916908373ffffffffffffffffffffffffffffffffffffffff1602179055506080820151816004015560a0820151816005015560c08201518160060160006101000a81548160ff0219169083151502179055509050508160056000828254610d84919061216d565b9250508190555060076000815480929190610d9e906120b9565b9190505550505050565b60006020528060005260406000206000915054906101000a900460ff1681565b81600160003373ffffffffffffffffffffffffffffffffffffffff1673ffffffffffffffffffffffffffffffffffffffff168152602001908152602001600020541015610e4a576040517f08c379a0000000000000000000000000000000000000000000000000000000008152600401610e41906121ed565b60405180910390fd5b81600160003373ffffffffffffffffffffffffffffffffffffffff1673ffffffffffffffffffffffffffffffffffffffff1681526020019081526020016000206000828254610e99919061216d565b9250508190555060016000808373ffffffffffffffffffffffffffffffffffffffff1673ffffffffffffffffffffffffffffffffffffffff16815260200190815260200160002060006101000a81548160ff02191690831515021790555081600160008373ffffffffffffffffffffffffffffffffffffffff1673ffffffffffffffffffffffffffffffffffffffff1681526020019081526020016000206000828254610f4691906114bb565b925050819055505050565b60085481565b60016020528060005260406000206000915090505481565b60065481565b6006544210610fb9576040517f08c379a0000000000000000000000000000000000000000000000000000000008152600401610fb09061227f565b60405180910390fd5b60016000803373ffffffffffffffffffffffffffffffffffffffff1673ffffffffffffffffffffffffffffffffffffffff16815260200190815260200160002060006101000a81548160ff02191690831515021790555034600160003373ffffffffffffffffffffffffffffffffffffffff1673ffffffffffffffffffffffffffffffffffffffff168152602001908152602001600020600082825461105f91906114bb565b92505081905550346004600082825461107891906114bb565b92505081905550346005600082825461109191906114bb565b92505081905550565b80600160003373ffffffffffffffffffffffffffffffffffffffff1673ffffffffffffffffffffffffffffffffffffffff16815260200190815260200160002054101561111c576040517f08c379a0000000000000000000000000000000000000000000000000000000008152600401611113906121ed565b60405180910390fd5b600554600160003373ffffffffffffffffffffffffffffffffffffffff1673ffffffffffffffffffffffffffffffffffffffff1681526020019081526020016000205410156111a0576040517f08c379a000000000000000000000000000000000000000000000000000000000815260040161119790612311565b60405180910390fd5b80600160003373ffffffffffffffffffffffffffffffffffffffff1673ffffffffffffffffffffffffffffffffffffffff16815260200190815260200160002060008282546111ef919061216d565b925050819055508060046000828254611208919061216d565b925050819055508060056000828254611221919061216d565b9250508190555050565b600a60009054906101000a900473ffffffffffffffffffffffffffffffffffffffff1681565b600a60009054906101000a900473ffffffffffffffffffffffffffffffffffffffff1673ffffffffffffffffffffffffffffffffffffffff163373ffffffffffffffffffffffffffffffffffffffff16146112e1576040517f08c379a00000000000000000000000000000000000000000000000000000000081526004016112d890611e46565b60405180910390fd5b600554821115611326576040517f08c379a000000000000000000000000000000000000000000000000000000000815260040161131d9061214d565b60405180910390fd5b8073ffffffffffffffffffffffffffffffffffffffff166108fc839081150290604051600060405180830381858888f1935050505015801561136c573d6000803e3d6000fd5b50816005600082825461137f919061216d565b925050819055505050565b6040518060e00160405280600081526020016060815260200160008152602001600073ffffffffffffffffffffffffffffffffffffffff16815260200160008152602001600081526020016000151581525090565b8280546113eb90611da3565b90600052602060002090601f01602090048101928261140d5760008555611454565b82601f1061142657805160ff1916838001178555611454565b82800160010185558215611454579182015b82811115611453578251825591602001919060010190611438565b5b5090506114619190611465565b5090565b5b8082111561147e576000816000905550600101611466565b5090565b6000819050919050565b7f4e487b7100000000000000000000000000000000000000000000000000000000600052601160045260246000fd5b60006114c682611482565b91506114d183611482565b9250827fffffffffffffffffffffffffffffffffffffffffffffffffffffffffffffffff038211156115065761150561148c565b5b828201905092915050565b6000604051905090565b600080fd5b600080fd5b61152e81611482565b811461153957600080fd5b50565b60008135905061154b81611525565b92915050565b600073ffffffffffffffffffffffffffffffffffffffff82169050919050565b600061157c82611551565b9050919050565b61158c81611571565b811461159757600080fd5b50565b6000813590506115a981611583565b92915050565b600080604083850312156115c6576115c561151b565b5b60006115d48582860161153c565b92505060206115e58582860161159a565b9150509250929050565b6000602082840312156116055761160461151b565b5b60006116138482850161153c565b91505092915050565b61162581611482565b82525050565b600081519050919050565b600082825260208201905092915050565b60005b8381101561166557808201518184015260208101905061164a565b83811115611674576000848401525b50505050565b6000601f19601f8301169050919050565b60006116968261162b565b6116a08185611636565b93506116b0818560208601611647565b6116b98161167a565b840191505092915050565b6116cd81611571565b82525050565b60008115159050919050565b6116e8816116d3565b82525050565b600060e082019050611703600083018a61161c565b8181036020830152611715818961168b565b9050611724604083018861161c565b61173160608301876116c4565b61173e608083018661161c565b61174b60a083018561161c565b61175860c08301846116df565b98975050505050505050565b6000602082019050611779600083018461161c565b92915050565b600081519050919050565b600082825260208201905092915050565b6000819050602082019050919050565b6117b481611482565b82525050565b600082825260208201905092915050565b60006117d68261162b565b6117e081856117ba565b93506117f0818560208601611647565b6117f98161167a565b840191505092915050565b61180d81611571565b82525050565b61181c816116d3565b82525050565b600060e08301600083015161183a60008601826117ab565b506020830151848203602086015261185282826117cb565b915050604083015161186760408601826117ab565b50606083015161187a6060860182611804565b50608083015161188d60808601826117ab565b5060a08301516118a060a08601826117ab565b5060c08301516118b360c0860182611813565b508091505092915050565b60006118ca8383611822565b905092915050565b6000602082019050919050565b60006118ea8261177f565b6118f4818561178a565b9350836020820285016119068561179b565b8060005b85811015611942578484038952815161192385826118be565b945061192e836118d2565b925060208a0199505060018101905061190a565b50829750879550505050505092915050565b6000602082019050818103600083015261196e81846118df565b905092915050565b600080fd5b600080fd5b7f4e487b7100000000000000000000000000000000000000000000000000000000600052604160045260246000fd5b6119b88261167a565b810181811067ffffffffffffffff821117156119d7576119d6611980565b5b80604052505050565b60006119ea611511565b90506119f682826119af565b919050565b600067ffffffffffffffff821115611a1657611a15611980565b5b611a1f8261167a565b9050602081019050919050565b82818337600083830152505050565b6000611a4e611a49846119fb565b6119e0565b905082815260208101848484011115611a6a57611a6961197b565b5b611a75848285611a2c565b509392505050565b600082601f830112611a9257611a91611976565b5b8135611aa2848260208601611a3b565b91505092915050565b600080600060608486031215611ac457611ac361151b565b5b600084013567ffffffffffffffff811115611ae257611ae1611520565b5b611aee86828701611a7d565b9350506020611aff8682870161153c565b9250506040611b108682870161159a565b9150509250925092565b6000611b2582611551565b9050919050565b611b3581611b1a565b8114611b4057600080fd5b50565b600081359050611b5281611b2c565b92915050565b600060208284031215611b6e57611b6d61151b565b5b6000611b7c84828501611b43565b91505092915050565b6000602082019050611b9a60008301846116df565b92915050565b60008060408385031215611bb757611bb661151b565b5b6000611bc58582860161153c565b9250506020611bd685828601611b43565b9150509250929050565b611be981611b1a565b82525050565b6000602082019050611c046000830184611be0565b92915050565b7f4f6e6c7920696e766573746f72732063616e20706572666f726d20746869732060008201527f6163746976697479000000000000000000000000000000000000000000000000602082015250565b6000611c66602883611636565b9150611c7182611c0a565b604082019050919050565b60006020820190508181036000830152611c9581611c59565b9050919050565b7f416c726561647920766f74656420666f7220746869732070726f706f73616c00600082015250565b6000611cd2601f83611636565b9150611cdd82611c9c565b602082019050919050565b60006020820190508181036000830152611d0181611cc5565b9050919050565b7f566f74696e6720706572696f642068617320656e646564000000000000000000600082015250565b6000611d3e601783611636565b9150611d4982611d08565b602082019050919050565b60006020820190508181036000830152611d6d81611d31565b9050919050565b7f4e487b7100000000000000000000000000000000000000000000000000000000600052602260045260246000fd5b60006002820490506001821680611dbb57607f821691505b602082108103611dce57611dcd611d74565b5b50919050565b7f4f6e6c792061646d696e2063616e20706572666f726d2074686973206163746960008201527f7669747900000000000000000000000000000000000000000000000000000000602082015250565b6000611e30602483611636565b9150611e3b82611dd4565b604082019050919050565b60006020820190508181036000830152611e5f81611e23565b9050919050565b7f457865637574696f6e20706572696f642068617320656e646564000000000000600082015250565b6000611e9c601a83611636565b9150611ea782611e66565b602082019050919050565b60006020820190508181036000830152611ecb81611e8f565b9050919050565b7f50726f706f73616c20616c726561647920657865637574656400000000000000600082015250565b6000611f08601983611636565b9150611f1382611ed2565b602082019050919050565b60006020820190508181036000830152611f3781611efb565b9050919050565b7f4e487b7100000000000000000000000000000000000000000000000000000000600052601260045260246000fd5b6000611f7882611482565b9150611f8383611482565b925082611f9357611f92611f3e565b5b828204905092915050565b6000611fa982611482565b9150611fb483611482565b9250817fffffffffffffffffffffffffffffffffffffffffffffffffffffffffffffffff0483118215151615611fed57611fec61148c565b5b828202905092915050565b7f4e6f7420656e6f75676820766f74657320746f2065786563757465207468652060008201527f70726f706f73616c000000000000000000000000000000000000000000000000602082015250565b6000612054602883611636565b915061205f82611ff8565b604082019050919050565b6000602082019050818103600083015261208381612047565b9050919050565b7f4e487b7100000000000000000000000000000000000000000000000000000000600052603260045260246000fd5b60006120c482611482565b91507fffffffffffffffffffffffffffffffffffffffffffffffffffffffffffffffff82036120f6576120f561148c565b5b600182019050919050565b7f4e6f7420656e6f7567682066756e647300000000000000000000000000000000600082015250565b6000612137601083611636565b915061214282612101565b602082019050919050565b600060208201905081810360008301526121668161212a565b9050919050565b600061217882611482565b915061218383611482565b9250828210156121965761219561148c565b5b828203905092915050565b7f496e73756666696369656e742073686172657320617661696c61626c65000000600082015250565b60006121d7601d83611636565b91506121e2826121a1565b602082019050919050565b60006020820190508181036000830152612206816121ca565b9050919050565b7f536f72727920636f6e747269627574696f6e20706572696f6420746f2074686960008201527f732044414f2068617320656e6465640000000000000000000000000000000000602082015250565b6000612269602f83611636565b91506122748261220d565b604082019050919050565b600060208201905081810360008301526122988161225c565b9050919050565b7f496e73756666696369656e742073686172657320617661696c61626c6520666f60008201527f72207472616e7366657200000000000000000000000000000000000000000000602082015250565b60006122fb602a83611636565b91506123068261229f565b604082019050919050565b6000602082019050818103600083015261232a816122ee565b905091905056fea2646970667358221220aeb129ac3724d0f544f27b5ae7edf9f8bdb223bf77272d7229aa68936f6fae1f64736f6c634300080d0033",
  "linkReferences": {},
  "deployedLinkReferences": {}
}